:0200000007fff8
:0200010007f9fd
:0200020007e90c
:0200030007cd27
:0200040007a74c
:0200050007767c
:02000600073ab7
:0200070006f5fc
:0200080006a64a
:02000900064ea1
:02000a0005ed02
:02000b0005836b
:02000c000513da
:02000d00049b52
:02000e00041cd0
:02000f00039854
:02001000030fdc
:02001100028269
:0200120001f1fa
:02001300015e8c
:0200140000c921
:020015000032b7
:020016000f9c3d
:020017000f05d3
:020018000e7167
:020019000ddefa
:02001a000d4e89
:02001b000cc215
:02001c000c3b9b
:02001d000bb91d
:02001e000b3d98
:02001f000ac70e
:020020000a597b
:0200210009f2e2
:0200220009943f
:02002300093f93
:0200240008f3df
:0200250008b120
:02002600087957
:02002700084b84
:020028000828a6
:020029000810bd
:02002a000803c9
:02002b000802c9
:02002c00080bbf
:02002d00081faa
:02002e00083e8a
:02002f0008685f
:02003000089d29
:0200310008dce9
:0200320009249f
:0200330009764c
:0200340009d2ef
:020035000a358a
:020036000aa11d
:020037000b15a7
:020038000b8f2c
:020039000c0faa
:02003a000c9523
:02003b000d1f97
:02003c000dae07
:02003d000e3f74
:02003e000ed4de
:02003f000f6947
:00000001FF
