:0200000007fff8
:0200010007fdf9
:0200020007f500
:0200030007e90b
:0200040007d81b
:0200050007c230
:0200060007a74a
:02000700078769
:0200080007638c
:02000900073ab4
:02000a00070de0
:02000b0006dc11
:02000c0006a646
:02000d00066c7f
:02000e00062ebc
:02000f0005edfd
:0200100005a742
:02001100055f89
:020012000513d4
:0200130004c324
:02001400047175
:02001500041cc9
:0200160003c520
:02001700036b79
:02001800030fd4
:0200190002b231
:02001a00025290
:02001b0001f1f1
:02001c00018f52
:02001d00012cb4
:02001e0000c917
:02001f0000647b
:020020000000de
:020021000f9c32
:020022000f3796
:020023000ed4f9
:020024000e715b
:020025000e0fbc
:020026000dae1d
:020027000d4e7c
:020028000cf1d9
:020029000c9534
:02002a000c3b8d
:02002b000be4e4
:02002c000b8f38
:02002d000b3d89
:02002e000aedd9
:02002f000aa124
:020030000a596b
:020031000a13b0
:0200320009d2f1
:0200330009942e
:02003400095a67
:0200350009249c
:0200360008f3cd
:0200370008c6f9
:02003800089d21
:02003900087944
:02003a00085963
:02003b00083e7d
:02003c00082892
:02003d000817a2
:02003e00080bad
:02003f000803b4
:00000001FF
