:020000000000fe
:02000100006499
:0200020000c933
:02000300012cce
:02000400018f6a
:0200050001f107
:020006000252a4
:0200070002b243
:02000800030fe4
:02000900036b87
:02000a0003c52c
:02000b00041cd3
:02000c0004717d
:02000d0004c32a
:02000e000513d8
:02000f00055f8b
:0200100005a742
:0200110005edfb
:02001200062eb8
:02001300066c79
:0200140006a63e
:0200150006dc07
:02001600070dd4
:02001700073aa6
:0200180007637c
:02001900078757
:02001a0007a736
:02001b0007c21a
:02001c0007d803
:02001d0007e9f1
:02001e0007f5e4
:02001f0007fddb
:0200200007ffd8
:0200210007fdd9
:0200220007f5e0
:0200230007e9eb
:0200240007d8fb
:0200250007c210
:0200260007a72a
:02002700078749
:0200280007636c
:02002900073a94
:02002a00070dc0
:02002b0006dcf1
:02002c0006a626
:02002d00066c5f
:02002e00062e9c
:02002f0005eddd
:0200300005a722
:02003100055f69
:020032000513b4
:0200330004c304
:02003400047155
:02003500041ca9
:0200360003c500
:02003700036b59
:02003800030fb4
:0200390002b211
:02003a00025270
:02003b0001f1d1
:02003c00018f32
:02003d00012c94
:02003e0000c9f7
:02003f0000645b
:00000001FF
