:020000000000fe
:020001000032cb
:02000200006498
:02000300009764
:0200040000c931
:0200050000fbfe
:02000600012ccb
:02000700015e98
:02000800018f66
:0200090001c133
:02000a0001f102
:02000b000222cf
:02000c0002529e
:02000d0002826d
:02000e0002b23c
:02000f0002e10c
:02001000030fdc
:02001100033eac
:02001200036b7e
:02001300039850
:0200140003c522
:0200150003f1f5
:02001600041cc8
:0200170004479c
:02001800047171
:02001900049b46
:02001a0004c31d
:02001b0004ebf4
:02001c000513ca
:02001d000539a3
:02001e00055f7c
:02001f00058357
:0200200005a732
:0200210005cb0d
:0200220005edea
:02002300060ec7
:02002400062ea6
:02002500064e85
:02002600066c66
:02002700068a47
:0200280006a62a
:0200290006c10e
:02002a0006dcf2
:02002b0006f5d8
:02002c00070dbe
:02002d000724a6
:02002e00073a8f
:02002f00074f79
:02003000076364
:02003100077650
:0200320007873e
:0200330007982c
:0200340007a71c
:0200350007b50d
:0200360007c2ff
:0200370007cdf3
:0200380007d8e7
:0200390007e1dd
:02003a0007e9d4
:02003b0007f0cc
:02003c0007f5c6
:02003d0007f9c1
:02003e0007fdbc
:02003f0007feba
:00000001FF
