:020000000000fe
:02000100009766
:02000200012ccf
:0200030001c139
:020004000252a6
:0200050002e116
:02000600036b8a
:0200070003f103
:02000800047181
:0200090004eb06
:02000a00055f90
:02000b0005cb23
:02000c00062ebe
:02000d00068a61
:02000e0006dc0e
:02000f000724c4
:02001000076384
:0200110007984e
:0200120007c223
:0200130007e103
:0200140007f5ee
:0200150007fee4
:0200160007fde4
:0200170007f0f0
:0200180007d807
:0200190007b529
:02001a00078756
:02001b00074f8d
:02001c00070dce
:02001d0006c11a
:02001e00066c6e
:02001f00060ecb
:0200200005a732
:0200210005399f
:0200220004c315
:02002300044790
:0200240003c512
:02002500033e98
:0200260002b224
:020027000222b3
:02002800018f46
:0200290000fbda
:02002a00006470
:02002b000fcef6
:02002c000f378c
:02002d000ea221
:02002e000e0fb3
:02002f000d7e44
:020030000cf1d1
:020031000c6859
:020032000be4dd
:020033000b655b
:020034000aedd3
:020035000a7d42
:020036000a13ab
:0200370009b20c
:02003800095a63
:02003900090bb1
:02003a0008c6f6
:02003b00088a31
:02003c00085961
:02003d00083386
:02003e000817a1
:02003f000807b0
:00000001FF
