:0200000007fff8
:0200010007fef8
:0200020007fdf8
:0200030007f9fb
:0200040007f5fe
:0200050007f002
:0200060007e908
:0200070007e10f
:0200080007d817
:0200090007cd21
:02000a0007c22b
:02000b0007b537
:02000c0007a744
:02000d00079852
:02000e00078762
:02000f00077672
:02001000076384
:02001100074f97
:02001200073aab
:020013000724c0
:02001400070dd6
:0200150006f5ee
:0200160006dc06
:0200170006c120
:0200180006a63a
:02001900068a55
:02001a00066c72
:02001b00064e8f
:02001c00062eae
:02001d00060ecd
:02001e0005edee
:02001f0005cb0f
:0200200005a732
:02002100058355
:02002200055f78
:0200230005399d
:020024000513c2
:0200250004ebea
:0200260004c311
:02002700049b38
:02002800047161
:0200290004478a
:02002a00041cb4
:02002b0003f1df
:02002c0003c50a
:02002d00039836
:02002e00036b62
:02002f00033e8e
:02003000030fbc
:0200310002e1ea
:0200320002b218
:02003300028247
:02003400025276
:020035000222a5
:0200360001f1d6
:0200370001c105
:02003800018f36
:02003900015e66
:02003a00012c97
:02003b0000fbc8
:02003c0000c9f9
:02003d0000972a
:02003e0000645c
:02003f0000328d
:00000001FF
